:040000000C94270134
:100004000C9400000C9400000C9400000C9400006C
:100014000C9400000C9400000C9400000C9400005C
:100024000C9400000C9400000C9400000C9400004C
:100034000C9400000C9400000C9400000C9400003C
:100044000C9400000C9400000C9400000C9400002C
:100054001027E80364000A000100001000011000EA
:1000640001000000FFFF3134372A3235383033368F
:1000740039232A3023443132333435003637383982
:100084003000E80332333435360037383930310044
:10009400DC05333435363700383930313200D00797
:1000A400343536373800393031323300B004353620
:1000B40037383900303132333400080736373839AD
:1000C400300031323334350084033738393031006D
:1000D400323334353600980838393031320033340D
:1000E400353637001405393031323300343536377C
:1000F4003800A4063031323334003536373839000D
:100104004C04456E74657220554E616D653A004528
:100114006E74657220506173733A0057726F6E6724
:100124002043726564656E7469616C7300312E429C
:10013400616C20322E5472616E736600332E5472D9
:10014400736320342E4F74683F004163633A25641F
:100154000042616C3A25640053656E6420746F3A02
:1001640000526563697069656E74204E6F74004651
:100174006F756E6400456E74657220416D6F756EA7
:10018400743A005472616E7366657200436F6D70E9
:100194006C657465004661696C6564004E6F20543B
:1001A40072616E73616374696F6E73005965740074
:1001B40025642D25732D2564004F74686572204EC7
:1001C4006F7400496D706C656D656E7465640000D4
:1001D40004000400660010001F026A008C002F0255
:1001E4007A000D00600106010C006D01130112007C
:1001F40079011F010F008B0131010E009A014001AA
:100204000900A8015C010E00B10165010600BF01EF
:1002140073010E00C50179010900D30187010900AA
:10022400DC0190010900E50187010700EE01990155
:100234001000F501A00104000502B0010A00090242
:10024400BD010C001302C7010000F894EE27ECBBBB
:10025400F1E0FBBFEBBFE5BF8DE0A2E0BB27ED9370
:100264008A95E9F780E094E0A0E6ED930197E9F739
:10027400E4EDF1E085919591009761F0A591B59138
:1002840005901590BF01F00105900D920197E1F7DB
:10029400FB01F0CFEFE5EDBFE4E0EEBFC0E6D1E057
:1002A4000C949A02D998A2E00DD0A8E20BD0ACE04D
:1002B40009D0A6E007D0A1E005D0A2E0B0E00E94FA
:1002C4002A070895AA93E881E295E17011F4DF9872
:1002D40001C0DF9AE881E295EF70E695E17011F4D0
:1002E400DE9801C0DE9A0E948A0611F4DD9801C0EE
:1002F400DD9AE881EE1FE0E0EE1FE17011F4DC9876
:1003040001C0DC9AD8980E94910611F4DF9801C0CC
:10031400DF9AE881E695E17011F4DE9801C0DE9A77
:10032400E881E695E695E17011F4DD9801C0DD9A67
:10033400E881E695E695E695E17011F4DC9801C054
:10034400DC9AD89840C0AA93E881E295E17011F450
:10035400DF9801C0DF9AE881E295EF70E695E170DD
:1003640011F4DE9801C0DE9A0E948A0611F4DD9829
:1003740001C0DD9AE881EE1FE0E0EE1FE17011F4A8
:10038400DC9801C0DC9AD89A0E94910611F4DF9897
:1003940001C0DF9AE881E695E17011F4DE9801C0AE
:1003A400DE9AE881E695E695E17011F4DD9801C0E6
:1003B400DD9AE881E695E695E695E17011F4DC981E
:1003C40001C0DC9AD89ADA9AA1E0B0E00E942A0728
:1003D400DA98A2E0B0E00E942A07219608950E94CC
:1003E4009A060A811B81D801EC91E03029F00F5F55
:1003F4001F4FAC91A8DFF7CF68C01A930A93E0EFC0
:10040400E2BB10E0143030F5133011F1E12FA1E01C
:100414000E943C07E095E2BBAAE0B0E00E942A07F4
:1004240000E00430A8F40E949F0681F40E949F0615
:10043400E9F3E12FAFE1B2E0F0E00E944D07AE0F27
:10044400BF1FEE27A00FBE1FEC9105C00F5FE9CFC1
:100454001F5FD8CFE0E0099119910895AA931A93E8
:1004640010E0E9811E1740F4AA81BB81EE27A10F99
:10047400BE1FEC931F5FF5CF188129C00E949A0616
:1004840000E010E00A30E0E01E0744F40E94AD06EC
:1004940011F4F8011AC00F5F1F4FF4CF14C00E946B
:1004A4009A0600E010E00A30E0E01E0764F40E94BF
:1004B400AD0619F46016710609F402C0F80105C00E
:1004C4000F5F1F4FF0CFEFEFFFEF198108812496E4
:1004D40008951A9392DF1E2F1332E1F719910895AC
:1004E400BA93AA930E94BC06E554FD4FAC81BD812A
:1004F400A083B1830E94BC06E354FD4FAA81BB8153
:10050400A083B1830E94BC06E154FD4FA881B98148
:10051400A083B183E42DF0E03196A1E0B0E00E9425
:1005240065074E2EE2E05E1608F45394269608956D
:10053400649730E0E7EFEABBE0E0EBBBE3E0E4BB69
:10054400E0E0E5BBEFE0E1BBE0EFE2BBE0E0E3BF0E
:10055400E2BFECBFEFBDEEBDEDBDECBDE7BDE6BD5A
:10056400EBBDEABDE9BDE8BDE2BDE5BDE4BDE3BD6B
:10057400E9BFE5BFE4BFEAB9E0E8E8B9E0E0E0BF1D
:10058400E6B9EDB9E6BF8EDEA1E09CDEA0E6B1E0FF
:100594000E94C106E7ECF2E00E94C806153080F420
:1005A4000E94CD0621F0033211F00A3209F406C08C
:1005B400E12FF0E0E953FD4F0E94D206033271F7B8
:1005C400E12FF0E0E953FD4FA0E0A083A1E07ADE43
:1005D400ADE6B1E00E94C106EDECF2E00E94C8066F
:1005E400153090F40E94CD0621F0033211F00A3246
:1005F40009F408C0E12FF0E0E353FD4F0083AAE2C1
:10060400A2DE1F5F033261F7E12FF0E0E353FD4FF9
:10061400A0E0A083A7ECB2E031DF3F01EFEFFFEFF2
:10062400E615F70561F00E94D806EB5CFD4FFA93DE
:10063400EA93ADECB2E00E94B704E03009F004C0E4
:10064400A89AA99831E00CC0A898A99AA1E03ADE2A
:10065400A9E7B1E0C4DEA0EDB7E00E942A0794CF79
:10066400303009F480C1A1E02DDEABE8B1E00E9496
:10067400DE06AAE9B1E0B3DE0E94CD0609F472C138
:10068400A1E020DEE02FF0E0E133A0E0FA0731F54D
:10069400FE013496FA93EA93EEE4F1E0FA93EA93D6
:1006A400F30131960E9452070E94E3060E94DE067F
:1006B400FE013496FA93EA93E5E5F1E0FA93EA93BE
:1006C4000E94D806E55CFD4FDF010E946F07662794
:1006D40077270E94E3060E94EC0644C1E233A0E0BF
:1006E400FA0709F0B5C0A8EAB1E00E94C106E3ED3B
:1006F400F2E00E94C806153080F40E94CD0621F075
:10070400033211F00A3209F406C0E12FF0E0ED5291
:10071400FD4F0E94D206033271F7E12FF0E0ED5253
:10072400FD4FA0E0A083A3EDB2E0B9DEAF01EFEF8F
:10073400FFEFE417F50759F4A1E0C4DDA1EBB1E044
:100744000E94DE06AFEBB1E00E94EC060BC1A1E013
:10075400B9DDA5ECB1E00E94C106E9EDF2E0FA933F
:10076400EA93A5E07BDE1430A0F40E94CD0651F09C
:10077400033241F00A3231F0003310F00A3308F04A
:1007840001C001C004C00E94F0060E94D2060332D8
:1007940051F70E94F006A0E0A083E0E0EA83EB8337
:1007A40010E0A9EDB2E00E94CB04A12FB0E0AE1797
:1007B400BF0788F4AA81BB81EAE00E945F07DF01DA
:1007C4000E94F006E081F0E0F097EA0FFB1FEA8355
:1007D400FB831F5FE6CF0E94D806E55CFD4FDF0177
:1007E4000E946F07DF01EA81FB81AE17BF0728F182
:1007F4000E94D8060E94F506EA1BFB0BD001ED937C
:10080400FC93AEE0A49FF001A59FF00D0E94F506B5
:10081400EA0FFB1FD001ED93FC937A926A925A93EC
:100824004A93AE81BF815CDEA1E04CDDA3EDB1E073
:100834000E94DE06ACEDB1E008C0A1E043DDA5EE08
:10084400B1E00E94DE06AEEEB1E0C9DD42DE8AC050
:10085400E333A0E0FA0709F06EC0552041F4A5EF98
:10086400B1E00E94DE06A5E0B2E0B9DD62C0E0E0DE
:10087400E883E983E52DA881B981F0E0AE17BF07CD
:100884000CF057C02297E42DF0E03197AA81BB8188
:10089400EA1BFB0B3296A1E0B0E00E946507E883F7
:1008A400F983FE013696FA93EA93E4EBF1E0FA93C6
:1008B400EA93EE81FF8131960E9452070E947707E6
:1008C400A885B985E6E00E945F07E354FD4FDF0188
:1008D4000E946F07AEE0B0E00E945707E15DFD4F54
:1008E400662777270E947707AC85BD85E6E00E94DE
:1008F4005F07E154FD4FDF010E946F0766277727EA
:100904000E9477078CE00E9456066096EA81FB817C
:10091400309729F4DE0116960E94DE0603C0DE013C
:1009240016965DDD2296E881F9813196E883F98394
:10093400A1CFCFDD17C0E433A0E0FA0749F4A9E062
:10094400B2E00E94DE06A3E1B2E00E94EC060AC017
:10095400EA32A0E0FA0731F430E0A898A998EFEF62
:10096400FFEF3F017DCE10CEFFCFBA93AA93E9915A
:10097400F991A991B9916D917191671721F4662349
:10098400D1F7EE270895671BE1F3E1E008F4E250A4
:100994000895BA93AA93A991B991EE27FF276D916F
:1009A400662311F03196FBCF0895BA93AA93AA2730
:1009B400BB27E991F9910590002011F01196FBCF26
:1009C400FD0108950E949A06AA81BB8112960E9495
:1009D4006F07309759F1AA81BB8114960E946F0763
:1009E4008F01309761F00230E0E01E0798F0F801C3
:1009F40031978F01AA81BB811496ED93FC93AA8150
:100A0400BB811296ED91FD913196FE93EE93319751
:100A1400AC81A083AA81BB810E946F07FF232AF0C7
:100A2400ED91FD913196FE93EE9306C0AA81BB81B0
:100A3400EFEFFFEFED93FC9319810881259608955C
:100A4400BA93AA9326970E947C0710E0AC85BD85D3
:100A5400E0E0F0E0ED93FC93EA89FB893196EA8BC0
:100A6400FB8B3197E4912E2FE03009F415C1E12F6F
:100A7400E03039F4253211F411E002C00E94FE0680
:100A84000AC1E130A9F4253219F40E94FE0602C11C
:100A940012E040E000E02D3211F401E0FCC02B3202
:100AA40011F44BE2F8C0203211F440E2F4C002C069
:100AB400E23039F450E013E0203311F40068EBC065
:100AC40003C0E33009F0E7C0203310F02A3308F004
:100AD40007C0AAE05A9F502DE22FE0535E0FDBC0FF
:100AE400E22FE33649F40E940507E889F989A481D5
:100AF400AA930E940B07CEC0E33741F40E94050776
:100B04000E9411070E94CB041E2F0AC0E03761F433
:100B14000E9405070E9411070E94D7041E2F086037
:100B240002600F7730E034C0E43611F0E93611F496
:100B3400046002C0E53731F4E4E5F0E0EE83FF83BE
:100B440015E00CC0E83511F4086003C0E83709F07B
:100B5400A1C0EEE5F0E0EE83FF8314E002FF14C0D1
:100B64000E9405070E941B07AB85AA233AF4EA8575
:100B7400FB850E943807EA87FB874DE2403011F07D
:100B84001F5F01C00B7F04C00E9405070E941B0762
:100B940000FD11C0151778F407FF08C002FF04C058
:100BA4000B7F242F115001C020E301C020E20E94DA
:100BB400FE065150EFCF312F01FF17C03030A1F0A6
:100BC40003FF06C0EE81FF812591EE83FF8305C0FC
:100BD400AE81BF812D91AE83BF830E94FE0650304B
:100BE40009F051503150EACF4BC020E3EE81FF8130
:100BF4000E947307E887F987EE81FF813296EE83BE
:100C0400FF83E885F985AA85BB85AE17BF0750F039
:100C14002F5FA885B985EA85FB85EA1BFB0BEA876C
:100C2400FB87EFCF2A3328F003FF02C0295F01C0FE
:100C3400295D04FD1AC0213320F4A885B9851197D4
:100C440009F409C0531710F000FF01C013C020E2DB
:100C540007FF0BC020E3006102FF07C00B7F4A932C
:100C64000E940B07503009F051500E94FE0650308C
:100C740009F051503150A885B985129708F0B5CFC5
:100C840000FF08C0503031F05150E0E2EA930E9476
:100C94000B07F8CF10E0E0CEAC85BD850E946F074E
:100CA4000E94830764960895FF92F82E26970E9467
:100CB4007E070E942307309719F4EFEFFFEF23C05C
:100CC400DE0116960E9434078D010E942307EE83ED
:100CD400FF83E0E0E887E987DE011A960E94340783
:100CE4000E946F07FA93EA931A930A93E4EEF4E0EE
:100CF400FA93EA93DE011A96A3DE9F01AE81BF81C7
:100D0400E0E0EC93F9010E9485072A96FF9008958C
:100D1400E881E295EF70E695E695E1700895DA9A38
:100D2400A1E0B0E00E942A07DA98E881E170089512
:100D3400BA93AA931A930A93089510B2E02FF0E09D
:100D44003496A1E0B0E00E944407A12DB0E0EA236C
:100D5400FB2330970895AEE0A09FF001A19FF00D12
:100D6400E15DFD4FFA93EA93AC81BD810E94B70423
:100D7400E0300895E42DA6E0EA9FF00108950E9472
:100D8400F101A0EC0E94640110E00895FA93EA9343
:100D9400A6E00C9430020E94FF010E2F003008954B
:100DA4000083A02F0E94A5011F5F0895F301AEE008
:100DB400B0E00E94570708950E94F101A0EC0C9442
:100DC40064010E94770784E00E9456062896DE019B
:100DD400149608950E94F1010C946B02E12FF0E047
:100DE400E752FD4F0895E55CFD4F0F01DF010E94BE
:100DF4006F07AA81BB8108952A93AD85BE85EF85CF
:100E0400F88909950895E889F9893497E88BF98B6D
:100E14000895AD85BE85EF85F88909950895A8895B
:100E2400B98914960E946F07EE83FF83AE81BF8158
:100E34000895A889B98914960E946F07EA87FB87E9
:100E44000895DE011C960E9434070E946F070895DE
:100E5400109639F0A89580ED97E00197F1F7119776
:100E6400C9F708950024AF0DB01D0895F195E195DB
:100E7400F0400895EE230E2EEA2F19F0EE0F0A9497
:100E8400E9F70895EE230E2EFD0121F0EE0FFF1F6A
:100E94000A94E1F70895EE0FFF1FEE0FFF1F089568
:100EA4006F2F660F660B762F0895FA9FF02DEB9F38
:100EB400F00DEA9FE02DF10D08956E2F6A9FF00169
:100EC4006B9FF00D0895E894F7FF02C0CFDF68949C
:100ED400EA23FB230EF4CADF0895ED91FC911197E8
:100EE40008950590F491E02D08957A936A93FA9306
:100EF400EA9308955A934A933A932A931A930A9336
:100F040008955D814C813B812A811981088108956E
:00000001FF
